:020000040800F2
:100000000050002021020008270200082B020008EF
:100010009D020008A1020008E9020008000000009B
:100020000000000000000000000000003103000894
:10003000350300080000000039030008FD10000827
:100040004D0300084D0300084D0300084D03000850
:100050004D0300084D0300084D0300084D03000840
:100060004D0300084D0300084D0300084D03000830
:100070004D0300084D0300084D0300084D03000820
:100080004D0300084D0300084D0300084D03000810
:100090004D0300084D0300084D0300084D03000800
:1000A0004D0300084D0300084D0300084D030008F0
:1000B0004D0300084D0300084D0300084D030008E0
:1000C0004D0300084D0300084D0300084D030008D0
:1000D0004D0300084D0300084D03000811120008ED
:1000E0004D0300084D0300084D0300080000000008
:1000F0000000000000000000000000000000000000
:1001000000000000000000005FF808F100B583B0B7
:1001100000F0AAF9304B314A1360314A1360314B79
:10012000314A32498B4204D21168196004330432D7
:10013000F7E72A4B1A682E4B9A4200D0FEE7284B6D
:100140001A682C4B9A42F9D1234B2B4A13602B4A45
:1001500013602B4B02E000221A600433294A9342B9
:10016000F9D3254B1B6813B9244B1B6803B1FEE779
:1001700000F086F9694601A800F022F9224C234BD1
:10018000E41AA4100025AC4214DC214C214BE41AE3
:10019000A4100025AC4213DC0099019801F040F84E
:1001A00005461D4C1D4BE41AA410002C0EDC2846FD
:1001B00000F0E2F8154B53F8253098470135E2E797
:1001C000144B53F8253098470135E3E7013C134BB6
:1001D00053F824309847E8E7BABADECA0000002096
:1001E0008800002000000020141C00088C00002063
:1001F00078563412325476988C0000206C0200201D
:100200008C000020700200207803000878030008AA
:1002100078030008780300087803000878030008D2
:1002200008B5FFF773FF00BEFEE71EF0040F0CBF1A
:10023000EFF30880EFF309807146414A10472DE93A
:10024000F04182B004468846124B5E6B9F6B9D6AFC
:100250001B6B13F0020F03D00E4BDB6A002B0CDB81
:100260000D4800F0B5F8CDF800803B4632462946EF
:10027000204600F009F900BEFEE74BF6AB6100F046
:100280007DF90028ECD0034B4FF00042DA6202B057
:10029000BDE8F08100ED00E0AC1B000800BEFEE709
:1002A0001EF0040F0CBFEFF30880EFF309807146D6
:1002B000244A10472DE9F04182B004468846084B95
:1002C0005E6B9F6B9D6A074800F082F8CDF8008056
:1002D0003B4632462946204600F0D6F800BEFEE7EF
:1002E00000ED00E0BC1B00081EF0040F0CBFEFF394
:1002F0000880EFF309807146134A10472DE9F04159
:1003000082B004468846084B5E6B9F6B9D6A074827
:1003100000F05EF8CDF800803B4632462946204684
:1003200000F0B2F800BEFEE700ED00E0C81B0008D8
:1003300000BEFEE700BEFEE700BEFEE7704700001D
:100340003F020008B5020008FD02000800BEFEE7FB
:10035000141C0008000000208C000020141C000861
:1003600000000000000000008C000020700200204F
:08037000000000000000000085
:10037800FEE7000008B503460C4A12685AB10B4A5A
:100388001068033323F003030344094A934206D851
:10039800064A136008BD054A06491160EFE700F0F8
:1003A80043FF0C2303604FF0FF30F3E79000002079
:1003B800004C00207002002001230360014B0B60F9
:1003C800704700BF040000200FB400B583B004AB31
:1003D80053F8042B01938021064800F057FF0028AA
:1003E80003DD0146034800F037F803B05DF804EB7D
:1003F80004B07047980000202DE9F04385B004460A
:100408000F4643560BB10E461EE0042528462146EA
:10041800ABBE0446384605B0BDE8F08314F9011BAD
:1004280004AA1A4402F8101C0133AB42F6D304AAFA
:100438001344002203F8102C4FF00408E946404604
:100448004946ABBE8046761B002EE3D03546102EBB
:1004580028BF10250023E8E708B5FFF7CDFF08BD42
:1004680008B500F0FDF8024A024B9A6008BD00BFCB
:100478000000000800ED00E008B500F019F908BD1B
:10048800F8B504460D4617461E462748FFF79CFF59
:1004980021682648FFF798FF61682548FFF794FF11
:1004A800A1682448FFF790FFE1682348FFF78CFF15
:1004B80021692248FFF788FF61692148FFF784FF17
:1004C800A1692048FFF780FFE1691F48FFF77CFF1B
:1004D8001E48FFF779FF29461D48FFF775FF1D4C99
:1004E800E16A1D48FFF770FF216B1C48FFF76CFF9E
:1004F800E16B1B48FFF768FF15F0800F0AD115F470
:10050800004F0CD11748FFF75FFF06991648FFF711
:100518005BFFF8BD39461548FFF756FFEFE7314650
:100528001348FFF751FFEDE7901A0008A01A0008DA
:10053800B01A0008C01A0008D01A0008E01A00080B
:10054800F01A0008001B0008101B0008201B0008F8
:100558002C1B000800ED00E03C1B00084C1B0008A9
:100568005C1B00088C1B0008941B00086C1B00080F
:100578007C1B000883691A888A4201D000207047D2
:100588000268033A012A03D80233836101207047C5
:100598000020704782B00023019300932C4A13680F
:1005A80043F4803313602A4B1B6803F40033009331
:1005B800019B01330193009B1BB9019BB3F5A06F0D
:1005C800F1D1234B1B6813F4003F06D0012300939D
:1005D800009B012B04D002B0704700230093F7E77B
:1005E8001C4B1A6842F010021A601A6822F00302C3
:1005F8001A601A6842F002021A60A3F580535A681A
:100608005A605A685A605A6842F480625A605A6856
:1006180022F47C125A605A6842F4E8125A601A6846
:1006280042F080721A600A4B1B6813F0007FFAD000
:10063800074B5A6822F003025A605A6842F00202D5
:100648005A60034B5B6803F00C03082BF9D1C2E72F
:10065800001002400020024008B5FFF79BFF08BDCC
:1006680008B5104B1A6842F001021A6059680E4A20
:100678000A405A601A6822F0847222F480321A60A2
:100688001A6822F480221A605A6822F4FE025A601C
:100698004FF41F029A60FFF7DFFF044B4FF0006230
:1006A8009A6008BD001002400000FFF800ED00E06D
:1006B8001F4B5B6803F00C03042B15D0082B17D0D5
:1006C8001BB11C4B1C4A1A6002E01A4B1A4A1A60EA
:1006D800174B5B68C3F30313184AD35CDAB21549A6
:1006E8000B68D3400B607047124B134A1A60EFE750
:1006F8000F4A53685268C3F38343023312F4803FAE
:100708000AD00B4A526812F4003F0BD00C4A02FB85
:1007180003F3084A1360DBE7094A02FB03F3054ABF
:100728001360D5E7044A02FB03F3024A1360CFE7DC
:10073800001002401C00002000127A000C0000206B
:1007480000093D000246A0F13003D8B2092802D9B9
:10075800A2F13700C0B27047F8B50546407AFFF7F6
:10076800F1FF0746A87AFFF7EDFF0446E87AFFF79E
:10077800E9FF0646287BFFF7E5FF064A13882406AB
:1007880044EA077444EA065444EA004018431060F7
:10079800F8BD00BF200000202DE9F047054640784D
:1007A800FFF7D0FF0646A878FFF7CCFF40EA061609
:1007B800F6B2E878FFF7C6FF80462879FFF7C2FF50
:1007C80004466879FFF7BEFF0746A879FFF7BAFF26
:1007D800230243EA08331BB243EA07131BB2184348
:1007E80080B21F4A538840EA03431360C0F30903E9
:1007F8000BB100242AE0800A00F090F9F9E74FEAEB
:10080800840909F10903E85CFFF79CFF804609F1B8
:100818000A03E85CFFF796FF074609F10B03E85C5B
:10082800FFF790FF824609F10C0915F80900FFF758
:1008380089FF000240EA0A3000B240EA081000B21C
:100848003843084B23F814000134E4B27108A1427C
:10085800D5D8034B1A68034800F090F9BDE8F08733
:1008680020000020A4010020F8B506460124002736
:100878000BE0305DFFF766FF0501631CF05CFFF7D6
:1008880061FF284307440234E4B2254633199B78B4
:100898000A2BEED1305DFFF755FF04010135705D7D
:1008A800FFF750FF40B22043C0B27B42DBB2834225
:1008B80001D00120F8BD0020FCE738B50546FFF758
:1008C800D3FF80B904462B7A312B0FD0342B05D0B7
:1008D800302B09D12846FFF75FFF05E02846FFF7D0
:1008E8003BFF042400E0FF24204638BD0124FBE739
:1008F8000023092B09D89A0002F1006202F5005280
:10090800126812B90133DBB2F3E70A2B01D00120D8
:10091800704700207047000038B50023174A13704D
:10092800174A1360174C257800F062FC164A505598
:1009380023780133DBB22370591E525C0A2A00D097
:1009480038BD9A1E1048805C0D280BD0033B0E4919
:10095800C95C0D290CD00D4B01221A70094B0022DD
:100968001A70EDE708480A24845400244454EDE73B
:1009780005490A20C85400238B54ECE7870100205E
:100988008001002085010020180100208601002038
:1009980008B500220121104600F086FA00F00EFC8E
:1009A8000221084600F082FB0E21022000F07EFBA7
:1009B8000421002000F07AFB044B054A1A60054B1D
:1009C8001A68054B1A601B68984708BD08ED00E0D7
:1009D80000200008042000087C01002008B500F071
:1009E8002BFB0221084600F041FB0321022000F006
:1009F8003DFB1221012000F039FB0421002000F00A
:100A080035FB01221146002000F00AF900220121DD
:100A1800104600F069F901220A21104600F000F999
:100A280002220A21012000F05FF900220B21012097
:100A380000F0F6F801220B21104600F0C5F900F08D
:100A48008FFB094800F0DAFB072000F0A7FA002224
:100A58001146272000F0B0FA272000F08DFAFFF7A2
:100A680047FF024B187008BD2109000884010020C7
:100A780010B526E0214B00221A702148FFF71DFF10
:100A88000446FF280CD01F4800F0A0FB1E4B1B7823
:100A9800012B09D0012C18D11B4B01221A7014E02C
:100AA8001A4800F093FBF1E7002CF3D1164B002213
:100AB8001A700AE0164A136801331360154A934204
:100AC80011D00E4B1B78012BD4D0134B1B78022B63
:100AD800F0D1114B00221A700B4B1B78012BE9D176
:100AE800FFF756FFE6E70020094B18600A4A13781B
:100AF80001331370012100F011FAE2E786010020AA
:100B080018010020D81B000884010020DC1B000805
:100B180080010020400D030087010020154BDB6891
:100B280013F0010FFAD1134B1B6913F0800F05D096
:100B3800104B114A5A6002F188325A600D4B1A69FB
:100B480042F002021A61800200F1006058611A69DD
:100B580042F040021A61074BDB6813F0010FFAD12B
:100B6800044BDA6842F02002DA601A6922F00202C5
:100B78001A617047002002402301674530B4184BC2
:100B8800DB6813F0010FFAD1154B1B6913F0800FC6
:100B980005D0134B134C5C6004F188345C60104C36
:100BA800236943F00103236100240FE030F8143077
:100BB80022F814300A4BDB6813F0010FFAD1084D04
:100BC800EB6843F02003EB600134A4B28C42EDD310
:100BD800034A136923F00103136130BC704700BF57
:100BE80000200240230167450F2912D808B90C29B3
:100BF80011D8012803D0022807D0002070478B1E87
:100C0800DBB2022BF7D8012070470C2905D9002048
:100C1800704701207047012070470120704700008D
:100C2800012A02D901231846704770B516460D46A9
:100C38000446FFF7D9FF034628B9012C1DD024B17B
:100C4800022C32D00123184670BD072D0AD8234C38
:100C58002068A90003228A4020EA02008E40064349
:100C68002660F0E71D4C6068A90003228A4020EA4C
:100C780002008E4006436660E5E7072D0AD8184C47
:100C88002068A90003228A4020EA02008E40064319
:100C98002660D8E7124C6068A90003228A4020EA3F
:100CA80002008E4006436660CDE7072D0BD90D4C38
:100CB8006268A9000320884022EA000206FA01F1CE
:100CC80011436160BFE7074C2068A90003228A40EE
:100CD80020EA02008E4006432660B4E7000801407F
:100CE800000C014000100140F8B5032A62D81646EE
:100CF8000D460446FFF778FF074600285BD1012C14
:100D080020D01CB1022C39D0012754E0072D0CD873
:100D18002A480368A900023103228A4023EA020311
:100D280006FA01F11943016045E024484368A90027
:100D3800023103228A4023EA020306FA01F1194329
:100D4800416038E0072D0CD81D480368A90002311E
:100D580003228A4023EA020306FA01F119430160DB
:100D680029E017484368A900023103228A4023EA90
:100D7800020306FA01F1194341601CE0072D0CD962
:100D880010484268AB0002330321994022EA01026D
:100D980006FA03F3134343600DE00A480368A90009
:100DA800023103228A4023EA020306FA01F11943B9
:100DB800016000E001273846F8BD00BF0008014087
:100DC800000C014000100140F8B5022A62D816460E
:100DD8000D460446FFF708FF074600285BD1012CA3
:100DE80020D01CB1022C39D0012754E0072D0CD893
:100DF8002A480368A900023103228A4023EA020331
:100E080006FA01F11943016045E024484368A90046
:100E1800023103228A4023EA020306FA01F1194348
:100E2800416038E0072D0CD81D480368A90002313D
:100E380003228A4023EA020306FA01F119430160FA
:100E480029E017484368A900023103228A4023EAAF
:100E5800020306FA01F1194341601CE0072D0CD981
:100E680010484268AB0002330321994022EA01028C
:100E780006FA03F3134343600DE00A480368A90028
:100E8800023103228A4023EA020306FA01F11943D8
:100E9800016000E001273846F8BD00BF00080140A6
:100EA800000C014000100140012A02D90123184614
:100EB800704770B515460E460446FFF795FE034683
:100EC80078B9012C0FD01CB1022C16D0012308E0F0
:100ED8000F48C2680121B14022EA0102B5402A4305
:100EE800C260184670BD0B48C2680121B14022EAB1
:100EF8000102B5402A43C260F3E70748C2680121EE
:100F0800B14022EA0102B5401543C560E9E700BFD8
:100F180000080140000C01400010014038B50446AB
:100F28000D46FFF761FE034668B9012C0DD01CB1D0
:100F3800022C12D0012306E00C48C268012101FAF4
:100F480005F55540C560184638BD0948C2680121F5
:100F580001FA05F55540C560F5E70648C268012164
:100F680001FA05F55540C560EDE700BF00080140EE
:100F7800000C01400010014010B44409064951F822
:100F8800243000F01F00012202FA00F0184341F853
:100F9800240010BC704700BF00E100E0044B18704B
:100FA800000240F0BF6040F40030024B1860704708
:100FB800880100200CED00E01E4B1B78033B042B3E
:100FC80036D8DFE803F0030C17222D000A01D2B24D
:100FD80000F1604000F5614080F80023704712017D
:100FE80042EA4112D2B200F1604000F5614080F857
:100FF80000237047120142EA8112D2B200F1604028
:1010080000F5614080F800237047120142EAC112DE
:10101800D2B200F1604000F5614080F800237047CB
:101028001201D2B200F1604000F5614080F800235F
:10103800704700BF880100200B4B1A6822F48022F9
:101048001A601A6842F480321A60074B1B6813F45E
:10105800003FFAD0044B5A6822F003025A605A68DB
:1010680042F001025A6070470010024001280BD07C
:1010780010B1022810D070470B484369012202FAC8
:1010880001F11943416170470748C369012202FA17
:1010980001F11943C161704703488369012202FACB
:1010A80001F11943816170470010024001280CD0FA
:1010B80010B1022812D070470D484369012202FA84
:1010C80001F123EA0101416170470948C36901221E
:1010D80002FA01F123EA0101C161704704488369FA
:1010E800012202FA01F123EA01018161704700BF80
:1010F8000010024008B5064B1B6823B19847054B02
:101108001B78012B00D008BD014B00221A60FAE7BA
:101118008C0100209001002000010E4AB2FBF0F281
:101128000D4BB3FBF0F00D4BA3FB00135B096421DF
:1011380001FB13031B0140F2DC518B4201D9013240
:101148000023100180B2054AA2FB0323C3F34F1307
:101158001843704700127A000008AF2F1F85EB5123
:1011680010B5154CE36823F40053E360E36823F4F7
:101178008053E3604FF41650FFF7CEFFA060E3689A
:1011880023F48063E360236923F440532361E36815
:1011980043F00403E360E36843F00803E360E368B3
:1011A80043F02003E360E36823F08003E360E3682F
:1011B80043F40053E36010BD00480040024AD3687E
:1011C80023F40053D3607047004800400022815C3C
:1011D800064B5960054B1B6813F0800FFAD001329B
:1011E800D2B2835C002BF2D1704700BF00480040A8
:1011F800014B5868C0B2704700480040014B186066
:10120800704700BF9401002008B5024B1B6803B16A
:10121800984708BD9401002008B5FFF7DFFBFFF7EA
:1012280027FC002008BD0000014B1868704700BF6C
:101238002400002030B5141E05469BB0184605DA78
:101248008B234FF0FF302B601BB030BD4FF402737F
:10125800ADF80C300CBF234604F1FF33029305931D
:101268004FF6FF7300910491ADF80E3002461E9BB5
:101278006946284600F072F8431CBCBF8B232B60DC
:10128800002CE1D00022009B1A70DDE707B500931F
:1012980013460A46014603480068FFF7CBFF03B030
:1012A8005DF804FB240000202DE9F0478E68824693
:1012B8009E420C469046994637D88A8912F4906F18
:1012C80031D00223256809696F1A656905EB450560
:1012D80095FBF3F509F101033B449D4238BF1D46D8
:1012E800530530D5294600F035FB064650B90C2386
:1012F8004FF0FF30CAF80030A38943F04003A381C0
:10130800BDE8F0873A46216900F0B4FAA38923F4CE
:10131800906343F08003A38126613E4426604E46D5
:101328006561ED1BA5604E4500D94E4632464146E3
:10133800206800F0AAFAA36800209B1BA36023681A
:101348001E442660DCE72A4600F05EFB06460028BD
:10135800E2D12169504600F0B1FAC8E72DE9F04F13
:101368009DB003938B8980461D060C4616460FD503
:101378000B696BB9402100F0EDFA2060206128B9B3
:101388000C23C8F800304FF0FF30C7E040236361FA
:101398000023099320238DF8293030234FF0010BC7
:1013A8008DF82A3037463D4615F8013B0BB1252B01
:1013B8003ED1B7EB060A0BD053463246214640468B
:1013C800FFF772FF013000F0A480099B5344099392
:1013D8003B78002B00F09D8000234FF0FF32CDE9D1
:1013E8000523049307938DF853301A932F4605224B
:1013F80017F8011B4F4800F02FFA049BD0B9D90603
:1014080044BF20228DF853201A0744BF2B228DF8A1
:1014180053202A782A2A15D02F4600200A25079A11
:10142800394611F8013B303B092B4DD9B8B10FE0D3
:101438002F46B8E73F4A3D46801A0BFA00F018439A
:101448000490D3E7039A111D12680391002A01DB67
:10145800079204E0524243F00203079204933B7858
:101468002E2B0CD17B782A2B33D1039B02371A1DE4
:101478001B680392002BB8BF4FF0FF3305932E4D26
:1014880003223978284600F0E7F938B14023401B99
:1014980003FA00F0049B01370343049339780622CA
:1014A80026487E1C8DF8281000F0D6F9002838D080
:1014B800234B13BB039B073323F007030833039322
:1014C800099B4B4409936DE705FB023201200F4647
:1014D800A6E700230A25194601370593384610F870
:1014E800012B303A092A03D9002BC8D00591C6E749
:1014F80005FB012101230746F0E703AB00932246D1
:10150800104B04A94046AFF30080B0F1FF3F81467D
:10151800D6D1A3895B063FF536AF09981DB0BDE863
:10152800F08F03AB00932246064B04A9404600F017
:1015380081F8EAE7E01B0008E61B0008EA1B000840
:1015480000000000B11200082DE9F04791461F463F
:101558008A680B6906469342B8BF1346C9F800303B
:1015680091F843200C46DDF8208012B10133C9F808
:1015780000302368990642BFD9F800300233C9F811
:101588000030256815F0060507D104F1190AE3684B
:10159800D9F800209B1AAB4229DC94F84330226822
:1015A800003318BF012392062ED404F143023946B2
:1015B8003046C047013021D02368E56803F00603B0
:1015C800042B18BF0025D9F800204FF0000908BFE8
:1015D800AD1AA368226908BF25EAE5759342C4BF1E
:1015E8009B1AED181A344D451AD1002008E0012342
:1015F800524639463046C047013003D14FF0FF30DC
:10160800BDE8F0870135C2E73020E11881F84300D2
:101618005A1C94F845102244023382F84310C4E758
:101628000123224639463046C0470130E6D009F149
:101638000109D8E72DE9F04301F1430C0C46097E76
:1016480085B06E291746064698460C9A00F0B38076
:1016580022D8632936D00AD8002900F0B980582941
:1016680000F0838004F1420584F8421032E06429D6
:1016780001D06929F6D120681368050603F1040131
:101688002AD51B681160002B03DA2D225B4284F8EF
:1016980043206F480A2239E0732900F09D8008D85A
:1016A8006F2920D07029DDD1236843F020032360FF
:1016B80003E0752917D07829D4D17823654884F8B0
:1016C800453055E0136804F14205191D1B68116087
:1016D80084F8423001238CE01B6810F0400F116041
:1016E80018BF1BB2CFE713682568181D10602806BD
:1016F80001D51B6802E06806FBD51B886F2914BF5B
:101708000A2208225248002184F843106568002DF7
:10171800A560C0F29580216821F004012160002BAA
:101728003DD1002D40F08E806546082A0BD12368F4
:10173800DB0708D5236962689A42DEBF302305F8C3
:10174800013C05F1FF35ACEB05032361CDF80080C2
:101758003B4603AA21463046FFF7F6FE01304DD13D
:101768004FF0FF3005B0BDE8F083394884F84510E4
:10177800136821681D1D1B6815600A060BD5CA076A
:1017880044BF41F0200121601BB9226822F02002E9
:1017980022601022B7E74D0648BF9BB2EFE76546C7
:1017A800B3FBF2F102FB1133C35C05F8013D0B46B4
:1017B8000029F5D1B9E713682568181D616910601B
:1017C80028061B6801D5196002E06A06FBD5198056
:1017D800002365462361B9E71368191D11601D6868
:1017E80062680021284600F037F808B1401B6060A5
:1017F80063682361002384F84330A7E723692A46F6
:1018080039463046C0470130AAD023689B0713D415
:10181800E068039B9842B8BF1846A3E701234A46ED
:1018280039463046C04701309AD00135E368039AFB
:101838009B1AAB42F2DCEBE7002504F11909F5E746
:10184800002BACD1037804F1420584F842306CE7F0
:10185800F11B0008021C000810B5C9B202449042EE
:10186800034601D1002303E01C7801308C42F6D1F5
:10187800184610BD10B5431E0A44914200D110BD50
:1018880011F8014B03F8014FF7E7884210B501EB57
:10189800020307D8421E99420AD011F8014B02F8F8
:1018A800014FF8E78342F5D98118D21AD34200D103
:1018B80010BD13F8014D01F8014DF7E738B505469D
:1018C800002943D051F8043C0C1F002BB8BFE41882
:1018D80000F0D0F81E4A1368104633B963601460EC
:1018E8002846BDE8384000F0C6B8A3420BD92168A5
:1018F8006218934201BF1A685B68521822606360DD
:101908000460EDE713465A680AB1A242FAD9196889
:101918005818A0420BD12068014458188242196017
:10192800DED110685268014419605A60D8E702D9BC
:101938000C232B60D4E7206821188A4201BF116864
:1019480052680918216062605C60C9E738BD00BF51
:101958009801002070B5CD1C25F0030508350C2D25
:1019680038BF0C25002D064601DBA94203D90C23FC
:101978003360002070BD00F07DF8214A14682146CC
:1019880091B9204C23681BB9304600F063F82060F9
:101998002946304600F05EF8431C24D10C2330461B
:1019A800336000F068F8E4E70B685B1B18D40B2B76
:1019B8000FD90B60CC18CD50304600F05CF804F11C
:1019C8000B00231D20F00700C31AD3D05A42E2505F
:1019D800D0E74B688C4216BF636013600C46EBE798
:1019E8000C464968CCE7C41C24F00304A04205D087
:1019F800211A304600F02EF80130CFD02560DBE701
:101A0800980100209C010020F8B5074614460E46B0
:101A180021B9BDE8F8401146FFF79CBF22B9FFF78E
:101A28004DFF25462846F8BD00F026F8A0420FD203
:101A380021463846FFF78EFF05460028F2D031468A
:101A48002246FFF717FF31463846FFF737FFE9E729
:101A58003546E7E738B50023054C054608462360B8
:101A6800FEF788FC431C02D1236803B12B6038BD04
:101A7800A00100207047704751F8043C181F002B44
:101A8800BCBF0B58C0187047537461636B206672F3
:101A9800616D653A0A000000205230203D20202563
:101AA8003038580A00000000205231203D202025FF
:101AB8003038580A00000000205232203D202025EE
:101AC8003038580A00000000205233203D202025DD
:101AD8003038580A0000000020523132203D2025BD
:101AE8003038580A00000000204C52203D202025A4
:101AF8003038580A00000000205043203D2020259F
:101B08003038580A0000000020505352203D20254C
:101B18003038580A000000004653522F4641523AC6
:101B28000A0000002043465352203D20202530382B
:101B3800580A00002048465352203D2020253038BE
:101B4800580A00002044465352203D2020253038B2
:101B5800580A00002041465352203D2020253038A5
:101B6800580A0000204D4D464152203D202530386E
:101B7800580A00002042464152203D202025303896
:101B8800580A00004D6973630A000000204C522F68
:101B98004558435F52455455524E3D2025303858DC
:101BA8000A0000005B486172644661756C745D0AE6
:101BB800000000005B4275734661756C745D0A0035
:101BC8005B55736167654661756C745D0A0000005A
:101BD8004F4B00004E4F4B00232D302B2000686CDC
:101BE8004C00656667454647003031323334353638
:101BF8003738394142434445460030313233343571
:0B1C080036373839616263646566009E
:101C140078563412940000200000000000000000F8
:101C240000000000010203040607080900A24A0498
:101C34000000000828000020000000000000000050
:101C44000000000000000000000000000000000090
:101C54000000000000000000000000000000000080
:101C64000000000000000000000000000000000070
:101C74000000000000000000000000000000000060
:101C84000000000000000000000000000000000050
:0C1C9400000000000000000032547698B0
:040000050800010DE1
:00000001FF
