:020000040800F2
:1000000000280020F91100084912000849120008D0
:1000100049120008491200084912000800000000B7
:10002000000000000000000000000000491200086D
:100030004912000800000000491200084912000897
:100040004912000849120008491200084912000824
:1000500049120008491200087101000895010008C2
:10006000B9010008DD01000801020008491200087A
:1000700049120008491200084912000849120008F4
:1000800049120008491200084912000849120008E4
:1000900049120008491200084912000849120008D4
:1000A00049120008491200084912000849120008C4
:1000B000490E0008491200084912000849120008B8
:1000C00049120008491200084912000849120008A4
:1000D000491200086110000849120008491200087E
:1000E00049120008491200080000000049120008E7
:1000F0004912000849120008491200084912000874
:100100004912000849120008491200084912000863
:100110004912000849120008491200084912000853
:100120004912000849120008491200084912000843
:1001300010B5054C237833B9044B13B10448AFF321
:1001400000800123237010BD640000200000000027
:10015000941B000808B5034B1BB103490348AFF3D8
:10016000008008BD0000000068000020941B00080B
:1001700080B500AF054B1B689847054B1B68044AC8
:1001800043F00103136000BF80BD00BF800000206A
:100190001404014080B500AF054B5B689847054BE0
:1001A0001B68044A43F00203136000BF80BD00BF18
:1001B000800000201404014080B500AF054B9B680F
:1001C0009847054B1B68044A43F00403136000BFC3
:1001D00080BD00BF800000201404014080B500AF46
:1001E000054BDB689847054B1B68044A43F008033E
:1001F000136000BF80BD00BF8000002014040140D8
:1002000080B500AF054B1B699847054B1B68044A36
:1002100043F01003136000BF80BD00BF80000020CA
:100220001404014080B483B000AF0346FB710B4659
:10023000BB7113467B71BB790F2B00F2BE80FB793B
:10024000022B7AD0022B00F3B180002B02D0012BBD
:100250003AD0ABE0BB79072B17D85A4B1B68BA7959
:1002600092000F2101FA02F2D2431146554A0B4087
:100270001360544B1B687979BA79920001FA02F243
:100280001146504A0B43136092E0BB790F2B00F2EA
:100290008F80BB79083BBB714B4B1B68BA799200CE
:1002A0000F2101FA02F2D2431146474A0B40136074
:1002B000454B1B687979BA79920001FA02F211462E
:1002C000414A0B43136073E0BB79072B17D83F4BB0
:1002D0001B68BA7992000F2101FA02F2D24311464B
:1002E0003A4A0B401360394B1B687979BA7992000E
:1002F00001FA02F21146354A0B4313605AE0BB790A
:100300000F2B57D8BB79083BBB71314B1B68BA79AF
:1003100092000F2101FA02F2D24311462C4A0B40FF
:1003200013602B4B1B687979BA79920001FA02F2BB
:100330001146274A0B4313603CE0BB79072B17D8C3
:10034000244B1B68BA7992000F2101FA02F2D243C2
:100350001146204A0B4013601E4B1B687979BA790D
:10036000920001FA02F211461A4A0B43136023E08D
:10037000BB790F2B20D8BB79083BBB71164B1B6890
:10038000BA7992000F2101FA02F2D2431146124AC1
:100390000B401360104B1B687979BA79920001FA0F
:1003A00002F211460C4A0B43136005E000BF04E063
:1003B00000BF02E000BF00E000BF00BF0C37BD4639
:1003C00080BC70470008014004080140000C014057
:1003D000040C0140001001400410014080B483B0BF
:1003E00000AF0346FB710B46BB7113467B71BB79B3
:1003F0000F2B67D8FB79022B40D0022B5BDC002B44
:1004000002D0012B1DD056E07B79012B0AD1304B55
:100410001B68BA79012101FA02F211462C4A0B43FA
:1004200013604AE07B79002B47D1294B1B68BA79CE
:10043000012101FA02F2D2431146254A0B40136012
:100440003BE07B79012B0AD1224B1B68BA79012151
:1004500001FA02F211461F4A0B4313602FE07B7929
:10046000002B2CD11B4B1B68BA79012101FA02F237
:10047000D2431146174A0B40136020E07B79012BD1
:100480000AD1154B1B68BA79012101FA02F2114613
:10049000114A0B43136014E07B79002B11D10E4BF2
:1004A0001B68BA79012101FA02F2D24311460A4AC5
:1004B0000B40136005E000BF04E000BF02E000BF96
:1004C00000E000BF00BF0C37BD4680BC704700BFD6
:1004D0000C0801400C0C01400C10014080B588B0A4
:1004E00000AF0346FB710023FB7700220F2102209F
:1004F000FFF774FF0023FB7712E0FB7F0333D9B2D1
:10050000FA79FB7F043342FA03F3DBB203F0010311
:10051000DBB21A460020FFF761FFFB7F0133FB7758
:10052000FB7F032BE9D900220D210220FFF756FFA4
:1005300001220E210220FFF751FF42F21073BB612E
:1005400000E000BFBB695A1EBA61002BF9D100223E
:100550000E210220FFF742FF42F210737B6100E0A0
:1005600000BF7B695A1E7A61002BF9D100220F214E
:100570000220FFF733FF0023FB7711E0FB7F0333FB
:10058000D9B2FA79FB7F42FA03F3DBB203F001033D
:10059000DBB21A460020FFF721FFFB7F0133FB7718
:1005A000FB7F072BEAD900220D210220FFF716FF5F
:1005B00001220E210220FFF711FF42F210733B616E
:1005C00000E000BF3B695A1E3A61002BF9D10022BE
:1005D0000E210220FFF702FF42F21073FB6000E0E1
:1005E00000BFFB685A1EFA60002BF9D141F2883334
:1005F000BB6000E000BFBB685A1EBA60002BF9D197
:1006000000BF00BF2037BD4680BD80B582B000AFBF
:100610000023FB710023FB710AE0FB790333DBB29B
:10062000012219460020FFF7FDFDFB790133FB7124
:10063000FB79032BF1D901220D210220FFF7F2FDF6
:1006400001220E210220FFF7EDFD01220F210220E1
:10065000FFF7E8FD0220FFF741FF2820FFF73EFFEC
:100660000E20FFF73BFF0120FFF738FF0620FFF7C2
:1006700035FF00BF0837BD4680BD80B584B000AFF0
:100680000346FB710023FB7300220F210220FFF7BA
:10069000A5FE0023FB7312E0FB7B0333D9B2FA798A
:1006A000FB7B043342FA03F3DBB203F00103DBB25A
:1006B0001A460020FFF792FEFB7B0133FB73FB7BA6
:1006C000032BE9D901220D210220FFF787FE012229
:1006D0000E210220FFF782FE00220E210220FFF7EA
:1006E0007DFE00220F210220FFF778FE0023FB731E
:1006F00011E0FB7B0333D9B2FA79FB7B42FA03F3B7
:10070000DBB203F00103DBB21A460020FFF766FEFE
:10071000FB7B0133FB73FB7B072BEAD901220D2105
:100720000220FFF75BFE01220E210220FFF756FE9A
:1007300000220E210220FFF751FE00BF1037BD46F8
:1007400080BD80B584B000AF78600023FB7309E002
:10075000FB7B7A6813441B781846FFF78EFFFB7B00
:100760000133FB73FB7B7A6813441B78002BEFD1BA
:1007700000BF00BF1037BD4680BD000080B586B009
:1007800000AF78607B68134A934209D87B68124AAD
:10079000934205D900F026F81048FFF7D2FF14E085
:1007A0000023BB6007F10C0300221A605A609A60B4
:1007B0007A6807F108030A49184600F071FD07F14D
:1007C00008031846FFF7BDFF00BF00BF1837BD463E
:1007D00080BD00BF003665C4FFC99A3BAC1B000852
:1007E000BC1B000880B500AF0120FFF777FE00BFFB
:1007F00080BD80B500AF0021012000F069F900F054
:10080000F9F90221022000F013FA01220021002050
:10081000FFF708FD012202210020FFF703FD0D2252
:1008200001210020FFF7FEFC012205210120FFF736
:10083000F9FC012206210120FFF7F4FC012200212E
:100840000120FFF7EFFC012201210120FFF7EAFC64
:10085000012207210120FFF7E5FC012208210120E8
:10086000FFF7E0FC1C2000F0E5F800BF80BD80B57C
:1008700000AF4DF2D8620221022000F083FA4FF45B
:10088000FA7000F087F94AF6C8720221022000F0DF
:1008900079FA4FF4FA7000F07DF948F6B8020221B7
:1008A000022000F06FFA4FF4FA7000F073F946F28C
:1008B000A8120221022000F065FA4FF4FA7000F04D
:1008C00069F943F698220221022000F05BFA4FF406
:1008D000FA7000F05FF941F288320221022000F044
:1008E00051FA4FF4FA7000F055F90022022102206B
:1008F00000F048FA4FF4FA7000F04CF900220021A1
:100900000020FFF76BFD012202210020FFF766FDAA
:10091000002205210120FFF761FD012206210120AF
:10092000FFF75CFD002200210120FFF757FD0122A7
:1009300001210120FFF752FD002207210120FFF7CE
:100940004DFD012208210120FFF748FD00BF80BDB9
:1009500080B500AF00220221022000F013FA40F619
:10096000B83000F017F94CF250320221022000F0AA
:1009700009FA40F6B83000F00DF943F6982202214A
:10098000022000F0FFF940F6B83000F003F946F21B
:10099000A8120221022000F0F5F940F6B83000F06C
:1009A000F9F848F6B8020221022000F0EBF940F60F
:1009B000B83000F0EFF84AF6C8720221022000F0C9
:1009C000E1F940F6B83000F0E5F84EF65F2202217A
:1009D000022000F0D7F940F6B83000F0DBF8002232
:1009E00000210020FFF7FAFC002202210020FFF77F
:1009F000F5FC002205210120FFF7F0FC0022062172
:100A00000120FFF7EBFC002200210120FFF7E6FCAC
:100A1000002201210120FFF7E1FC00220721012033
:100A2000FFF7DCFC002208210120FFF7D7FC00BF04
:100A300080BD000080B483B000AF0346FB71FB793A
:100A40001F2B05D8FB7901229A40094B1A600AE056
:100A5000FB793B2B07D8FB79203BFB71FB7901220B
:100A60009A40044B1A6000BF0C37BD4680BC7047EB
:100A700000E100E004E100E080B400AF124B4FF46D
:100A800080321A60114B01221A6000BF0E4B1B68A6
:100A90005B0C03F00103002BF8D00C4B1B680B4AD6
:100AA00043F010031360094B1B68084A43F480733A
:100AB0001360064B1B68054A43F40063136000BFD4
:100AC000BD4680BC704700BF0010024004100240C9
:100AD00080B483B000AF03460A46FB711346BB7176
:100AE000BB791F2B2BD8FB79022B1CD0022B25DCCA
:100AF000002B02D0012B0BD020E0134B1B68BA79DE
:100B0000012101FA02F211460F4A0B43136016E06D
:100B10000E4B1B68BA79012101FA02F211460B4A09
:100B20000B4313600BE00A4B1B68BA79012101FAF1
:100B300002F21146064A0B43136000E000BF00BFFB
:100B40000C37BD4680BC7047141002401C10024098
:100B50001810024080B400AF0D4B1B680C4A23F004
:100B6000010313600A4B00225A60094B00229A606D
:100B7000074B1B68064A23F002031360044B1B68F3
:100B8000034A23F00403136000BFBD4680BC7047D6
:100B900010E000E080B483B000AF7860144B002216
:100BA0009A60134A7B684FF47A7101FB03F3536038
:100BB0000F4B1B680E4A43F00103136000BF0C4B40
:100BC0001B681B0C03F00103002BF8D0084B1B68BB
:100BD000074A23F001031360054B00225A60044BBF
:100BE00000229A6000BF0C37BD4680BC704700BF32
:100BF00010E000E080B400AF4FF0804301229A6221
:100C00004FF080434FF6E852DA624FF080434FF0E6
:100C100080421B6813604FF080431B684FF0804296
:100C200043F00103136000BFBD4680BC7047000065
:100C300080B584B000AF03460A46FB711346BB7112
:100C4000FB79184600F0D0F8F860FB681B6823F0C9
:100C50000102FB681A60FB681B6843F08002FB68B6
:100C60001A60BB79013B032B7AD801A252F823F01A
:100C7000810C0008B90C0008F10C0008290D0008CF
:100C8000FB689B6923F00302FB689A61FB689B6920
:100C900023F06802FB689A61FB689B6943F0680275
:100CA000FB689A61FB681B6A43F00102FB681A62E9
:100CB000FB6800225A6354E0FB689B6923F440728E
:100CC000FB689A61FB689B6923F4D042FB689A61D8
:100CD000FB689B6943F4D042FB689A61FB681B6A1E
:100CE00043F01002FB681A62FB6800229A6338E046
:100CF000FB68DB6923F00302FB68DA61FB68DB69F0
:100D000023F06802FB68DA61FB68DB6943F0680284
:100D1000FB68DA61FB681B6A43F48072FB681A6245
:100D2000FB680022DA631CE0FB68DB6923F4407295
:100D3000FB68DA61FB68DB6923F4D042FB68DA61A7
:100D4000FB68DB6943F4D042FB68DA61FB681B6A2D
:100D500043F48052FB681A62FB6800221A6400E0C8
:100D600000BFFB685B6943F00102FB685A61FB68E6
:100D70001B6843F00102FB681A6000BF1037BD46D4
:100D800080BD00BF80B584B000AF03463A60FB7100
:100D90000B46BB71FB79184600F026F8F860BB796A
:100DA000013B032B1AD801A252F823F0BD0D000815
:100DB000C50D0008CD0D0008D50D0008FB683A6888
:100DC0005A630CE0FB683A689A6308E0FB683A688B
:100DD000DA6304E0FB683A681A6400E000BF00BF11
:100DE0001037BD4680BD00BF80B485B000AF03465C
:100DF000FB710023FB60FB79023B032B17D801A298
:100E000052F823F0150E00081D0E0008230E0008EE
:100E1000290E00084FF08043FB6009E0074BFB60A0
:100E200006E0074BFB6003E0064BFB6000E000BF01
:100E3000FB6818461437BD4680BC7047000400406C
:100E400000080040000C004080B500AF4FF0804328
:100E50001B6903F00103002B0ED04FF080431B6988
:100E60004FF0804223F001031361304B1B68002BCD
:100E700002D02E4B1B6898474FF080431B6903F04C
:100E80000203002B0ED04FF080431B694FF08042CD
:100E900023F002031361264B1B68002B02D0244B66
:100EA0001B6898474FF080431B6903F00403002B35
:100EB0000ED04FF080431B694FF0804223F00403B3
:100EC00013611B4B5B68002B02D0194B5B68984782
:100ED0004FF080431B6903F00803002B0ED04FF046
:100EE00080431B694FF0804223F008031361104BCD
:100EF0009B68002B02D00E4B9B6898474FF08043B5
:100F00001B6903F01003002B0ED04FF080431B69C8
:100F10004FF0804223F010031361054BDB68002B78
:100F200002D0034BDB68984700BF80BD0001002062
:100F3000C000002080B483B000AF68237B604FF412
:100F400080733B603B6840F2DC52934204D97B687B
:100F500001337B6000233B60264B00221A60254B47
:100F6000DB68244A23F48053D360224BDB68214A98
:100F700023F48063D3601F4BDB681E4A23F02003F9
:100F8000D3601C4BDB681B4A23F04003D360194B32
:100F9000DB68184A23F08003D360164BDB68154AE0
:100FA00043F00803D360134BDB68124A43F0040399
:100FB000D360104B1B690F4A23F4805313610D4B10
:100FC0001B690C4A23F4005313617B681A013B68C8
:100FD0000949A1FB03135B09064913438B60054BC9
:100FE000DB68044A43F40053D36000BF0C37BD46AE
:100FF00080BC7047003801401F85EB5180B483B03E
:1010000000AF0023FB7100233B60124B1B68114AA9
:1010100023F02003136002E03B6801333B600D4B7B
:101020001B685B0903F00103002B03D13B680A4AEC
:101030009342F1D93B68094A934202D1FF23FB71E5
:1010400002E0044B5B68FB71FB7918460C37BD4628
:1010500080BC7047003801403F54890040548900EB
:1010600080B500AF034B00221A60034B1B68984702
:1010700000BF80BD003801400401002080B582B06F
:1010800000AFFFF7F9FC00210220FFF721FD02214C
:101090000220FFF71DFD03210220FFF719FD0421A7
:1010A0000220FFF715FD00210120FFF711FD0E21A1
:1010B0000220FFF70DFD2520FFF7BCFC1C20FFF7E9
:1010C000B9FC0A2209210020FFF7ACF8042209210B
:1010D0000020FFF7A7F8FFF798FAFFF72BFFFFF7BD
:1010E00039FDFFF786FB0023FB710023BB71002352
:1010F0007B71FFF7BCFBFFF781FF0346FB71FB79B8
:101100001846FFF73BFBFFF76DFBFB79412B0AD13C
:101110007B79DBB2002B06D10023BB71FFF718FCF3
:1011200001237B7131E0FB79532B0AD1BB79DBB210
:10113000002B06D100237B71FFF799FB0123BB71C4
:1011400023E0FB79422B0AD17B79DBB2002B06D15D
:101150000023BB71FFF7FCFB01237B7115E0FB79DA
:10116000432B0AD17B79DBB2002B06D10023BB7164
:10117000FFF7EEFB01237B7107E0FB79002B02D028
:10118000FB79202BB7D1FFF772FBB4E780B586B0AF
:1011900000AF7860144A154BD31A7B617B693B61C1
:1011A000134B1B68002B02D1114B124A1A60104BD3
:1011B0001A687B6813443A699A4207D200F046F8ED
:1011C00003460C221A604FF0FF3309E0084B1B68FE
:1011D000FB60074B1A687B681344054A1360FB6881
:1011E00018461837BD4680BD0028002000040000C6
:1011F00008010020200100200D488546AFF3008043
:101200000C480D490D4A002302E0D458C450043361
:10121000C4188C42F9D30A4A0A4C002301E0136037
:101220000432A242FBD300F017F8FFF727FFFEE7D6
:10123000002800200000002064000020FC1B0008A3
:10124000640000201C010020FEE70000014B18682C
:10125000704700BF0000002070B500260C4D0D4CFB
:10126000641BA410A64209D100F094FC00260A4D8C
:101270000A4C641BA410A64205D170BD55F8043B6E
:1012800098470136EEE755F8043B98470136F2E7F8
:10129000F41B0008F41B0008F41B0008F81B0008EE
:1012A0000EB46FF0004100B59CB01DAB02900690EB
:1012B000079104910848094953F8042B05910068E7
:1012C00002A9019300F068F80022029B1A701CB07A
:1012D0005DF804EB03B07047000000200802FFFF38
:1012E0002DE9F0478E6882469E420C4690461F4686
:1012F00038D88A8912F4906F32D025680969013391
:10130000A5EB010965694B4405EB450505EBD57572
:101310006D109D4238BF1D46530531D5294600F05A
:101320006FFB064650B90C234FF0FF30CAF800306F
:10133000A38943F04003A381BDE8F0874A462169B1
:1013400000F0CEFAA38923F4906343F08003A381D5
:1013500026614E4426603E466561A5EB0905A56001
:10136000BE4200D93E4632464146206800F0C6FAE9
:10137000A36800209B1BA360236833442360DBE742
:101380002A4600F0B1FB06460028E1D1504621690B
:1013900000F0CEFAC7E700002DE9F04F98468B89A0
:1013A00007461B060D4614469DB00ED50B6963B962
:1013B000402100F025FB2860286120B90C233B6008
:1013C0004FF0FF30D1E040236B61002309932023CD
:1013D0008DF8293030234FF00109CDF80C80DFF86B
:1013E000A4818DF82A3023469A4613F8012B0AB1BE
:1013F000252AF9D1BAEB040B0BD05B4622462946CD
:101400003846FFF76DFF013000F0AA80099A5A4470
:1014100009929AF80030002B00F0A28000234FF0D0
:10142000FF32CDE905230AF1010A049307938DF8F1
:1014300053301A935446052214F8011B514800F00A
:1014400041FA049AD8B9D00644BF20238DF853300E
:10145000110744BF2B238DF853309AF800302A2B04
:1014600015D0544600204FF00A0C079A214611F877
:10147000013B303B092B4ED9B0B1079214E0A0EBF1
:10148000080309FA03F31343A2460493D2E7039B2C
:10149000191D1B680391002BBBBF5B4242F0020287
:1014A00007930793B8BF049223782E2B0CD163784F
:1014B0002A2B35D1039B02341A1D1B680392002B83
:1014C000B8BF4FF0FF330593DFF8BCA003225046AE
:1014D000217800F0F7F940B14023A0EB0A0003FAAD
:1014E00000F0049B01340343049314F8011B06220B
:1014F00026488DF8281000F0E5F9002838D0244B54
:101500001BBB039B073323F0070308330393099B9B
:101510003344099367E70C4601200CFB0232A5E730
:1015200000234FF00A0C194601340593204610F8A9
:10153000012B303A092A03D9002BC5D00591C3E706
:10154000044601230CFB0121F0E703AB00932A467C
:101550003846104B04A9AFF30080421C0646D6D192
:10156000AB895B063FF52CAF09981DB0BDE8F08F45
:1015700003AB00932A463846064B04A900F07CF8DA
:10158000EBE700BFBF1B0008C51B0008C91B000814
:1015900000000000E11200082DE9F04716469946C8
:1015A0008A680B6907469342B8BF1346336091F8C7
:1015B00043200C46DDF820800AB1013333602368F4
:1015C000990642BF336802333360256815F006057B
:1015D00006D104F1190AE36832689B1AAB4228DC91
:1015E00094F84320131E226818BF012392062DD4BD
:1015F0004946384604F14302C047013020D02368F1
:10160000E56803F00603042B18BF002532684FF08D
:101610000006A36808BFAD1A226908BF25EAE57570
:101620009342C4BF9B1AED181A34B5421AD1002058
:1016300008E00123524649463846C047013003D1ED
:101640004FF0FF30BDE8F0870135C4E73020E118E6
:1016500081F843005A1C94F845102244023382F862
:101660004310C5E70123224649463846C0470130AA
:10167000E6D00136D9E700002DE9FF470F7E9146FD
:10168000782F80460C469A460C9D01F1430207D8FC
:10169000622F0AD8002F00F0D980582F00F0A480C4
:1016A00004F1420584F842703AE0A7F16303152B78
:1016B000F6D801A151F823F01117000825170008EA
:1016C000A1160008A1160008A1160008A11600081E
:1016D00025170008A1160008A1160008A116000889
:1016E000A11600083318000855170008151800083F
:1016F000A1160008A116000855180008A116000838
:1017000055170008A1160008A11600081D180008AA
:101710002B681A1D1B682A6004F1420584F84230C8
:101720000123A4E020682968060601F104030AD514
:101730000E682B60002E03DA2D23764284F84330A6
:101740000A235E4819E00E6810F0400F2B6018BFA6
:1017500036B2EFE72B682068191D2960010601D514
:101760001E6802E04606FBD51E886F2F0CBF0823BB
:101770000A235248002184F843106568002DA8BF51
:101780002168A560A4BF21F0040121600EB9002DDD
:101790004DD01546B6FBF3F103FB1167C75D05F8A5
:1017A000017D3746BB420E46F4D9082B0BD1236886
:1017B000DE0708D5236961689942DEBF302305F84A
:1017C000013C05F1FF35521B22614B462146404644
:1017D000CDF800A003AAFFF7DFFE01304CD14FF097
:1017E000FF3004B0BDE8F087344881F845702968BF
:1017F000236851F8046B29601D0614D5DF0744BF28
:1018000043F0200323601EB9236823F020032360E4
:101810001023AFE7236843F0200323607823284890
:1018200084F84530E3E7590648BFB6B2E6E7154607
:10183000BBE72B682668181D6169286035061B68A0
:1018400001D5196002E07006FBD51980002315460A
:101850002361BAE72B6800211A1D2A601D6862689F
:10186000284600F02FF808B1401B606063682361D0
:10187000002384F84330A8E72A46494640462369B6
:10188000D0470130ABD023689B0713D4E068039B9B
:101890009842B8BF1846A4E701233246494640465D
:1018A000D04701309BD00135E36803995B1AAB4206
:1018B000F2DCEBE7002504F11906F5E7D01B000880
:1018C000E11B0008034610B5C9B202449342184612
:1018D00001D1002003E0047801338C42F6D110BD21
:1018E0000A44914200F1FF3300D1704710B511F85E
:1018F000014B914203F8014FF9D110BD884210B558
:1019000001EB020402D98442234607D8431EA142B8
:1019100008D011F8012B03F8012FF8E70146024423
:101920008A4200D110BD13F8014D02F8014DF7E7CE
:1019300038B50546002940D051F8043C0C1F002B57
:10194000B8BFE41800F010F91C4A136833B963609B
:1019500014602846BDE8384000F00CB9A34208D90D
:10196000206821188B4201BF19685B680918216043
:10197000EDE71A465B680BB1A342FAD9116850181B
:10198000A0420BD120680144501883421160E0D17D
:1019900018685B68014411605360DAE702D90C23D0
:1019A0002B60D6E7206821188B4201BF19685B685D
:1019B0000918216063605460CBE738BD0C0100203A
:1019C00070B50E4E0C463168054611B900F0BCF8F2
:1019D00030602146284600F0B7F8431C0AD0C41CEA
:1019E00024F00304A04207D0211A284600F0ACF8E6
:1019F000013001D14FF0FF34204670BD10010020AE
:101A00002DE9F041CD1C25F0030508350C2D38BF1C
:101A10000C25002D074601DBA94205D90C23002621
:101A20003B603046BDE8F0812E4E00F09DF83368F3
:101A30001C4634BB29463846FFF7C2FF431C044608
:101A40004DD134682646002E40D1236831463846B1
:101A500004EB030800F078F880453AD1216803359B
:101A60006D1A25F0030508350C2D38BF0C253846B6
:101A70002946FFF7A5FF01302BD023682B442360B4
:101A80000EE02268521B1ED40B2A16D96119A342FC
:101A9000256018BF5960636808BF316062514B60B0
:101AA000384604F10B0600F065F826F00706231D02
:101AB000F21AB6D09B1BA350B3E76268A3420CBFD7
:101AC00032605A60ECE723466468B2E734467668D1
:101AD000B9E70C2338463B6000F04CF8A1E72560DD
:101AE000DEE700BF0C0100202DE9F04180461446DE
:101AF0000E4621B91146BDE8F041FFF781BF2AB972
:101B0000FFF716FF25462846BDE8F08100F038F8BB
:101B10008442074602D8B4EB500F12D82146404603
:101B2000FFF76EFF05460028EDD0BC422246314645
:101B300028BF3A46FFF7D4FE31464046FFF7F8FE8D
:101B4000E1E73546DFE7000038B50023054D0446E0
:101B500008462B60FFF71AFB431C02D12B6803B128
:101B6000236038BD14010020014800F011B800BF07
:101B700018010020014800F00CB800BF1801002037
:101B800051F8043C181F002BBCBF0B58C0187047FD
:101B900070477047F8B500BFF8BC08BC9E46704758
:0C1BA000F8B500BFF8BC08BC9E467047BA
:101BAC004F766572666C6F77202121212100000031
:101BBC00256400232D302B2000686C4C0065666773
:101BCC0045464700303132333435363738394142A7
:101BDC004344454600303132333435363738396179
:081BEC006263646566000000FD
:041BF400550100088F
:041BF80031010008AF
:101BFC0004000020000000000000000000000000B5
:101C0C0000000000000000000000000000000000C8
:101C1C0000000000000000000000000000000000B8
:101C2C0000000000000000000000000000000000A8
:101C3C000000000000000000000000000000000098
:101C4C000000000000000000000000000000000088
:041C5C000000000084
:04000005080011F9E5
:00000001FF
